{
  "contractName": "MultiSig",
  "abi": [
    {
      "inputs": [],
      "stateMutability": "payable",
      "type": "constructor"
    },
    {
      "anonymous": false,
      "inputs": [
        {
          "indexed": false,
          "internalType": "address",
          "name": "from",
          "type": "address"
        },
        {
          "indexed": false,
          "internalType": "uint256",
          "name": "amount",
          "type": "uint256"
        }
      ],
      "name": "FundsDeposited",
      "type": "event"
    },
    {
      "anonymous": false,
      "inputs": [
        {
          "indexed": false,
          "internalType": "address",
          "name": "newOwner",
          "type": "address"
        }
      ],
      "name": "NewOwnerAdded",
      "type": "event"
    },
    {
      "anonymous": false,
      "inputs": [
        {
          "indexed": false,
          "internalType": "uint256",
          "name": "transactionId",
          "type": "uint256"
        },
        {
          "indexed": false,
          "internalType": "address",
          "name": "to",
          "type": "address"
        },
        {
          "indexed": false,
          "internalType": "uint256",
          "name": "amount",
          "type": "uint256"
        },
        {
          "indexed": false,
          "internalType": "address",
          "name": "createdBy",
          "type": "address"
        },
        {
          "indexed": false,
          "internalType": "address",
          "name": "executedBy",
          "type": "address"
        }
      ],
      "name": "TransactionCompleted",
      "type": "event"
    },
    {
      "anonymous": false,
      "inputs": [
        {
          "indexed": false,
          "internalType": "uint256",
          "name": "nextTransactionId",
          "type": "uint256"
        },
        {
          "indexed": false,
          "internalType": "address",
          "name": "createdBy",
          "type": "address"
        },
        {
          "indexed": false,
          "internalType": "address",
          "name": "to",
          "type": "address"
        },
        {
          "indexed": false,
          "internalType": "uint256",
          "name": "amount",
          "type": "uint256"
        }
      ],
      "name": "TransactionCreated",
      "type": "event"
    },
    {
      "anonymous": false,
      "inputs": [
        {
          "indexed": false,
          "internalType": "uint256",
          "name": "transactionId",
          "type": "uint256"
        },
        {
          "indexed": false,
          "internalType": "address",
          "name": "signer",
          "type": "address"
        }
      ],
      "name": "TransactionSigned",
      "type": "event"
    },
    {
      "inputs": [],
      "name": "quorum",
      "outputs": [
        {
          "internalType": "uint256",
          "name": "",
          "type": "uint256"
        }
      ],
      "stateMutability": "view",
      "type": "function"
    },
    {
      "stateMutability": "payable",
      "type": "receive"
    },
    {
      "inputs": [
        {
          "internalType": "address",
          "name": "newOwner",
          "type": "address"
        }
      ],
      "name": "addOwner",
      "outputs": [],
      "stateMutability": "nonpayable",
      "type": "function"
    },
    {
      "inputs": [
        {
          "internalType": "address",
          "name": "addr",
          "type": "address"
        }
      ],
      "name": "suspendOwner",
      "outputs": [],
      "stateMutability": "nonpayable",
      "type": "function"
    },
    {
      "inputs": [
        {
          "internalType": "uint256",
          "name": "amount",
          "type": "uint256"
        },
        {
          "internalType": "address payable",
          "name": "to",
          "type": "address"
        }
      ],
      "name": "createTransfer",
      "outputs": [],
      "stateMutability": "nonpayable",
      "type": "function"
    },
    {
      "inputs": [],
      "name": "getPendingTransactions",
      "outputs": [
        {
          "internalType": "uint256[]",
          "name": "",
          "type": "uint256[]"
        }
      ],
      "stateMutability": "view",
      "type": "function"
    },
    {
      "inputs": [
        {
          "internalType": "uint256",
          "name": "transactionId",
          "type": "uint256"
        }
      ],
      "name": "getTransactionSignatureCount",
      "outputs": [
        {
          "internalType": "uint256",
          "name": "",
          "type": "uint256"
        }
      ],
      "stateMutability": "view",
      "type": "function"
    },
    {
      "inputs": [
        {
          "internalType": "uint256",
          "name": "id",
          "type": "uint256"
        }
      ],
      "name": "signTransation",
      "outputs": [],
      "stateMutability": "nonpayable",
      "type": "function"
    },
    {
      "inputs": [
        {
          "internalType": "uint256",
          "name": "id",
          "type": "uint256"
        }
      ],
      "name": "executeTransaction",
      "outputs": [],
      "stateMutability": "nonpayable",
      "type": "function"
    },
    {
      "inputs": [],
      "name": "getBalance",
      "outputs": [
        {
          "internalType": "uint256",
          "name": "",
          "type": "uint256"
        }
      ],
      "stateMutability": "view",
      "type": "function"
    }
  ],
  "bytecode": "0x6080604052336000806101000a81548173ffffffffffffffffffffffffffffffffffffffff021916908373ffffffffffffffffffffffffffffffffffffffff1602179055506001600360003373ffffffffffffffffffffffffffffffffffffffff1673ffffffffffffffffffffffffffffffffffffffff16815260200190815260200160002060006101000a81548160ff021916908360028111156100a057fe5b02179055506113d4806100b46000396000f3fe60806040526004361061008a5760003560e01c80634c12fa47116100595780634c12fa47146101e15780637065cb481461023c578063d11db83f1461028d578063e8b7d430146102f9578063ee22610b14610334576100e6565b806312065fe0146100eb5780631703a0181461011657806318cf544c14610141578063459a3f7814610192576100e6565b366100e6577f543ba50a5eec5e6178218e364b1d0f396157b3c8fa278522c2cb7fd99407d4743334604051808373ffffffffffffffffffffffffffffffffffffffff1681526020018281526020019250505060405180910390a1005b600080fd5b3480156100f757600080fd5b5061010061036f565b6040518082815260200191505060405180910390f35b34801561012257600080fd5b5061012b610377565b6040518082815260200191505060405180910390f35b34801561014d57600080fd5b506101906004803603602081101561016457600080fd5b81019080803573ffffffffffffffffffffffffffffffffffffffff16906020019092919050505061037c565b005b34801561019e57600080fd5b506101cb600480360360208110156101b557600080fd5b81019080803590602001909291905050506104db565b6040518082815260200191505060405180910390f35b3480156101ed57600080fd5b5061023a6004803603604081101561020457600080fd5b8101908080359060200190929190803573ffffffffffffffffffffffffffffffffffffffff1690602001909291905050506105d3565b005b34801561024857600080fd5b5061028b6004803603602081101561025f57600080fd5b81019080803573ffffffffffffffffffffffffffffffffffffffff169060200190929190505050610843565b005b34801561029957600080fd5b506102a2610ac7565b6040518080602001828103825283818151815260200191508051906020019060200280838360005b838110156102e55780820151818401526020810190506102ca565b505050509050019250505060405180910390f35b34801561030557600080fd5b506103326004803603602081101561031c57600080fd5b8101908080359060200190929190505050610b1f565b005b34801561034057600080fd5b5061036d6004803603602081101561035757600080fd5b8101908080359060200190929190505050610e9d565b005b600047905090565b600281565b3373ffffffffffffffffffffffffffffffffffffffff1660008054906101000a900473ffffffffffffffffffffffffffffffffffffffff1673ffffffffffffffffffffffffffffffffffffffff16146103d457600080fd5b600073ffffffffffffffffffffffffffffffffffffffff168173ffffffffffffffffffffffffffffffffffffffff161415610477576040517f08c379a000000000000000000000000000000000000000000000000000000000815260040180806020018281038252600f8152602001807f696e76616c69642061646472657373000000000000000000000000000000000081525060200191505060405180910390fd5b6002600360008373ffffffffffffffffffffffffffffffffffffffff1673ffffffffffffffffffffffffffffffffffffffff16815260200190815260200160002060006101000a81548160ff021916908360028111156104d357fe5b021790555050565b60008073ffffffffffffffffffffffffffffffffffffffff166004600084815260200190815260200160002060020160009054906101000a900473ffffffffffffffffffffffffffffffffffffffff1673ffffffffffffffffffffffffffffffffffffffff1614156105b5576040517f08c379a000000000000000000000000000000000000000000000000000000000815260040180806020018281038252601a8152602001807f7472616e73616374696f6e20646f6573206e6f7420657869737400000000000081525060200191505060405180910390fd5b60046000838152602001908152602001600020600401549050919050565b600160028111156105e057fe5b600360003373ffffffffffffffffffffffffffffffffffffffff1673ffffffffffffffffffffffffffffffffffffffff16815260200190815260200160002060009054906101000a900460ff16600281111561063857fe5b1461064257600080fd5b6001600081548092919060010191905055506040518060c0016040528060015481526020018381526020018273ffffffffffffffffffffffffffffffffffffffff1681526020013373ffffffffffffffffffffffffffffffffffffffff1681526020016000815260200160001515815250600460006001548152602001908152602001600020600082015181600001556020820151816001015560408201518160020160006101000a81548173ffffffffffffffffffffffffffffffffffffffff021916908373ffffffffffffffffffffffffffffffffffffffff16021790555060608201518160030160006101000a81548173ffffffffffffffffffffffffffffffffffffffff021916908373ffffffffffffffffffffffffffffffffffffffff1602179055506080820151816004015560a08201518160050160006101000a81548160ff021916908315150217905550905050600260015490806001815401808255809150506001900390600052602060002001600090919091909150557fe9097a4f4eddc0e5906640fcd9e1193c9db52771536ca4c8b06ab4c40aa045d2600154338385604051808581526020018473ffffffffffffffffffffffffffffffffffffffff1681526020018373ffffffffffffffffffffffffffffffffffffffff16815260200182815260200194505050505060405180910390a15050565b3373ffffffffffffffffffffffffffffffffffffffff1660008054906101000a900473ffffffffffffffffffffffffffffffffffffffff1673ffffffffffffffffffffffffffffffffffffffff161461089b57600080fd5b600073ffffffffffffffffffffffffffffffffffffffff168173ffffffffffffffffffffffffffffffffffffffff16141561093e576040517f08c379a000000000000000000000000000000000000000000000000000000000815260040180806020018281038252600f8152602001807f696e76616c69642061646472657373000000000000000000000000000000000081525060200191505060405180910390fd5b6000600281111561094b57fe5b600360008373ffffffffffffffffffffffffffffffffffffffff1673ffffffffffffffffffffffffffffffffffffffff16815260200190815260200160002060009054906101000a900460ff1660028111156109a357fe5b14610a16576040517f08c379a00000000000000000000000000000000000000000000000000000000081526004018080602001828103825260188152602001807f6164647265737320616c726561647920616e206f776e6572000000000000000081525060200191505060405180910390fd5b6001600360008373ffffffffffffffffffffffffffffffffffffffff1673ffffffffffffffffffffffffffffffffffffffff16815260200190815260200160002060006101000a81548160ff02191690836002811115610a7257fe5b02179055507f6e4e2a7c0e1576d48aeabd633d094f622d4f046286fec8b9045dd7f5c9fb087d81604051808273ffffffffffffffffffffffffffffffffffffffff16815260200191505060405180910390a150565b60606002805480602002602001604051908101604052809291908181526020018280548015610b1557602002820191906000526020600020905b815481526020019060010190808311610b01575b5050505050905090565b60016002811115610b2c57fe5b600360003373ffffffffffffffffffffffffffffffffffffffff1673ffffffffffffffffffffffffffffffffffffffff16815260200190815260200160002060009054906101000a900460ff166002811115610b8457fe5b14610b8e57600080fd5b600073ffffffffffffffffffffffffffffffffffffffff166004600083815260200190815260200160002060020160009054906101000a900473ffffffffffffffffffffffffffffffffffffffff1673ffffffffffffffffffffffffffffffffffffffff161415610c67576040517f08c379a000000000000000000000000000000000000000000000000000000000815260040180806020018281038252601a8152602001807f7472616e73616374696f6e20646f6573206e6f7420657869737400000000000081525060200191505060405180910390fd5b3373ffffffffffffffffffffffffffffffffffffffff166004600083815260200190815260200160002060030160009054906101000a900473ffffffffffffffffffffffffffffffffffffffff1673ffffffffffffffffffffffffffffffffffffffff161415610d22576040517f08c379a000000000000000000000000000000000000000000000000000000000815260040180806020018281038252602b81526020018061132a602b913960400191505060405180910390fd5b600015156005600083815260200190815260200160002060003373ffffffffffffffffffffffffffffffffffffffff1673ffffffffffffffffffffffffffffffffffffffff16815260200190815260200160002060009054906101000a900460ff16151514610ddc576040517f08c379a00000000000000000000000000000000000000000000000000000000081526004018080602001828103825260268152602001806113556026913960400191505060405180910390fd5b60016005600083815260200190815260200160002060003373ffffffffffffffffffffffffffffffffffffffff1673ffffffffffffffffffffffffffffffffffffffff16815260200190815260200160002060006101000a81548160ff0219169083151502179055507f737f6609fa194738ed162051f994c6e9599a830846ea9d72d6501d79871e09818133604051808381526020018273ffffffffffffffffffffffffffffffffffffffff1681526020019250505060405180910390a150565b60016002811115610eaa57fe5b600360003373ffffffffffffffffffffffffffffffffffffffff1673ffffffffffffffffffffffffffffffffffffffff16815260200190815260200160002060009054906101000a900460ff166002811115610f0257fe5b14610f0c57600080fd5b600073ffffffffffffffffffffffffffffffffffffffff166004600083815260200190815260200160002060020160009054906101000a900473ffffffffffffffffffffffffffffffffffffffff1673ffffffffffffffffffffffffffffffffffffffff161415610fe5576040517f08c379a000000000000000000000000000000000000000000000000000000000815260040180806020018281038252601a8152602001807f7472616e73616374696f6e20646f6573206e6f7420657869737400000000000081525060200191505060405180910390fd5b600015156004600083815260200190815260200160002060050160009054906101000a900460ff1615151415611066576040517f08c379a00000000000000000000000000000000000000000000000000000000081526004018080602001828103825260278152602001806113036027913960400191505060405180910390fd5b6002600460008381526020019081526020016000206004015410156110d6576040517f08c379a000000000000000000000000000000000000000000000000000000000815260040180806020018281038252602481526020018061137b6024913960400191505060405180910390fd5b6004600082815260200190815260200160002060010154471015611162576040517f08c379a00000000000000000000000000000000000000000000000000000000081526004018080602001828103825260148152602001807f696e73756666696369656e742062616c616e636500000000000000000000000081525060200191505060405180910390fd5b60016004600083815260200190815260200160002060050160006101000a81548160ff02191690831515021790555060006004600083815260200190815260200160002060020160009054906101000a900473ffffffffffffffffffffffffffffffffffffffff1690506000600460008481526020019081526020016000206001015490508173ffffffffffffffffffffffffffffffffffffffff166108fc829081150290604051600060405180830381858888f1935050505015801561122d573d6000803e3d6000fd5b507f619ec1be2a054aa3b93eabd8626ae2b2539841a9572c4e1a93ab2227ed508c678383836004600088815260200190815260200160002060030160009054906101000a900473ffffffffffffffffffffffffffffffffffffffff1633604051808681526020018573ffffffffffffffffffffffffffffffffffffffff1681526020018481526020018373ffffffffffffffffffffffffffffffffffffffff1681526020018273ffffffffffffffffffffffffffffffffffffffff1681526020019550505050505060405180910390a150505056fe7472616e73616374696f6e732068617320616c7265616479206265656e20636f6d706c657465647472616e73616374696f6e2063726561746f722063616e6e6f74207369676e207472616e73616374696f6e63616e6e6f74207369676e207472616e73616374696f6e206d6f7265207468616e206f6e63657472616e73616374696f6e207265717569726573206d6f7265207369676e617475726573a2646970667358221220a53aa985559836d52cec24dedabea2ba533ea96af9f6bd6ece4d6368f7294ddc64736f6c63430007050033",
  "immutableReferences": {},
  "source": "pragma solidity 0.7.5;\n\ncontract MultiSig{\n\n    address private _admin;\n\n    uint public constant quorum = 2;\n\n    uint private nextTransactionId;\n\n    uint[] private _pendingTransactions;\n\n    enum Authorization {\n        NONE,\n        OWNER,\n        SUSPENDED\n    }\n\n    struct Transaction {\n        uint id; \n        uint amount;\n        address payable to;\n        address createdBy;\n        uint signatureCount;\n        bool completed;\n    }\n\n    mapping(address => Authorization) private owners;\n\n    mapping(uint => Transaction) transactions;\n\n    mapping(uint => mapping(address => bool)) signatures;\n\n    event TransactionCreated(uint nextTransactionId, address createdBy, address to,  uint amount);\n    event TransactionCompleted(uint transactionId, address to, uint amount, address createdBy, address executedBy);\n    event TransactionSigned(uint transactionId, address signer);\n    event NewOwnerAdded(address newOwner);\n    event FundsDeposited(address from, uint amount);\n\n    constructor() \n      payable {\n          _admin = msg.sender;\n          owners[msg.sender] = Authorization.OWNER;\n    }\n\n    receive() external payable{\n         emit FundsDeposited(msg.sender, msg.value);\n    }\n\n    function addOwner(address newOwner) isAdmin external {\n          require(newOwner != address(0), \"invalid address\");\n          require(owners[newOwner] == Authorization.NONE, \"address already an owner\");\n          owners[newOwner] = Authorization.OWNER;\n          emit NewOwnerAdded(newOwner);\n    }\n\n      function suspendOwner(address addr) isAdmin external {\n          require(addr != address(0), \"invalid address\");\n          owners[addr] = Authorization.SUSPENDED;\n      }\n\n    function createTransfer(uint amount, address payable to) isValidOwner external {\n\n        nextTransactionId++;  \n         \n        transactions[nextTransactionId]= Transaction({\n              id:nextTransactionId,\n              amount: amount,\n              to: to,\n              createdBy: msg.sender,\n              signatureCount: 0,\n              completed: false\n        });\n\n        _pendingTransactions.push(nextTransactionId);\n        emit TransactionCreated(nextTransactionId, msg.sender, to, amount);\n    }\n\n    function getPendingTransactions() external view returns(uint[] memory){\n        return _pendingTransactions;\n    }\n\n    function getTransactionSignatureCount(uint transactionId) external view returns(uint) {\n        require(transactions[transactionId].to != address(0), \"transaction does not exist\");\n        return transactions[transactionId].signatureCount;\n    }\n\n    function signTransation(uint id) isValidOwner external {\n            require(transactions[id].to != address(0), \"transaction does not exist\");\n            require(transactions[id].createdBy != msg.sender,\"transaction creator cannot sign transaction\");\n            require(signatures[id][msg.sender] == false, \"cannot sign transaction more than once\");\n\n            signatures[id][msg.sender] = true;\n            emit TransactionSigned(id, msg.sender);\n    }\n\n    function executeTransaction(uint id) isValidOwner external {\n         require(transactions[id].to != address(0), \"transaction does not exist\");\n         require(transactions[id].completed != false, \"transactions has already been completed\");\n         require(transactions[id].signatureCount >= quorum, \"transaction requires more signatures\");\n         require(address(this).balance >= transactions[id].amount, \"insufficient balance\");\n\n        transactions[id].completed = true;\n        address payable to = transactions[id].to;\n        uint amount = transactions[id].amount;\n        to.transfer(amount);\n        emit TransactionCompleted(id, to, amount, transactions[id].createdBy, msg.sender);\n    }\n\n    function getBalance() external view returns(uint) {\n        return address(this).balance;\n    }\n\n    modifier isAdmin() {\n        require(_admin == msg.sender);\n        _;\n    }\n\n    modifier isValidOwner() {\n        require(owners[msg.sender] == Authorization.OWNER);\n        _;\n    }\n}",
  "sourcePath": "/Users/yusuf/Documents/Developer/workspaces/ethereum-projects/multisigwallet/eattheblocks/contracts/MultiSig.sol",
  "compiler": {
    "name": "solc",
    "version": "0.7.5+commit.eb77ed08.Emscripten.clang"
  },
  "schemaVersion": "3.3.2",
  "updatedAt": "2021-02-15T16:01:24.016Z",
  "devdoc": {
    "kind": "dev",
    "methods": {},
    "version": 1
  },
  "userdoc": {
    "kind": "user",
    "methods": {},
    "version": 1
  }
}